:100000000C94DD000C9405010C9405010C94050181
:100010000C9405010C9405010C9405010C94050148
:100020000C9405010C9405010C94100A0C947F0AA1
:100030000C9405010C9405010C9405010C94050128
:100040000C9405010C94AE0D0C9405010C94050163
:100050000C9405010C9405010C9405010C94640D9D
:100060000C9405010C94320D0C940C0D0C940501AC
:100070000C9405010C9405010C9405010C940501E8
:100080000C94B10C0C9405010C9405010C94050121
:100090000C9405010C9405010C9405010C940501C8
:1000A0000C9405010C9405010C9405010706050448
:1000B0000100080A0B0C0D090000000024002700B5
:1000C0002A002D003000080B000202020000090483
:1000D00000000102020000052400100105240101B6
:1000E000010424020605240600010705810310000F
:1000F0004009040100020A00000007050202400056
:1001000000070583024000000403090412010002F5
:10011000EF020140412336800001010203014172D8
:100120006475696E6F204C4C430041726475696E52
:100130006F204C656F6E6172646F000000000025D7
:100140000028002B002E00310003000000020009EF
:100150000F0000030401000C00000000000000007C
:100160000000000000000000000000000023002646
:100170000029002C002F00040404040403040502D9
:100180000202020403020202020606060606060432
:1001900004020202040404080201104080401020FE
:1001A000408040800802040180402010020110803D
:1001B000102040402000FD0E291711241FBECFEF54
:1001C000DAE0DEBFCDBF11E0A0E0B1E0E2E7F4E3AA
:1001D00002C005900D92AE33B107D9F723E0AEE32C
:1001E000B1E001C01D92A033B207E1F710E0CCED01
:1001F000D0E004C02197FE010E94D418CB3DD10766
:10020000C9F70E94600F0C942C1A0C940000FC019A
:1002100080912002882311F13FB7F89482E0809307
:10022000E9002091F200822F90E01816190614F4CC
:1002300081E090E0882339F0289844E640931F023B
:100240004091F1004083222339F02091F2002111E6
:1002500003C02BE62093E8003FBF08958FEF9FEF88
:1002600008952FB7F89483E08093E9009091E80017
:10027000892F807295FF04C09091F20080E4891B61
:100280002FBF08958091170281110DC082E08093E5
:10029000130284E080931402109216021092150249
:1002A00081E08093170283E192E00895409151012B
:1002B0005091520120914F01309150014217530744
:1002C000B4F49091E8009570E1F39091E80092FD0C
:1002D00019C08093F10080915101909152010196D3
:1002E0008F739927892B19F48EEF8093E800809102
:1002F00051019091520101969093520180935101C6
:1003000081E0089580E00895DF92EF92FF920F93CD
:100310001F93CF93DF93D82E8A01EB017B01E40E6C
:10032000F51ECE15DF0559F0D7FE12C0FE018491EF
:100330000E94560121968111F4CF0FEF1FEFC801E3
:10034000DF91CF911F910F91FF90EF90DF90089573
:100350008881EECF0F931F93CF93DF931F92CDB77A
:10036000DEB782E0898342E450E066EC70E080E82A
:100370000E9484010E944201DC0112960D911C91A1
:100380000115110589F0D801ED91FC910280F381EE
:10039000E02DBE016F5F7F4FC801099597FD04C036
:1003A000F80100851185ECCF89810F90DF91CF9105
:1003B0001F910F910895615030F02091F100FC01E0
:1003C00020830196F8CF289884E680931F02089531
:1003D000AF92BF92CF92DF92EF92FF920F931F9353
:1003E000CF93DF936C017B018B01040F151FEB0191
:1003F0005E01AE18BF08C017D10759F06991D60148
:10040000ED91FC910190F081E02DC6010995892BB9
:1004100079F7C501DF91CF911F910F91FF90EF9078
:10042000DF90CF90BF90AF900895FC01538D448D25
:10043000252F30E0842F90E0821B930B541710F08F
:10044000CF96089501970895FC01918D828D98179C
:1004500061F0A28DAE0FBF2FB11D5D968C91928D74
:100460009F5F9F73928F90E008958FEF9FEF0895A5
:10047000FC01918D828D981731F0828DE80FF11D6E
:10048000858D90E008958FEF9FEF0895FC01918D89
:10049000228D892F90E0805C9F4F821B91098F7382
:1004A0009927089581E292E00E94460221E0892B7B
:1004B00009F420E0822F089580E090E0892B29F054
:1004C0000E94520281110C9400000895FC01A48D39
:1004D000A80FB92FB11DA35ABF4F2C91848D90E066
:1004E00001968F739927848FA689B7892C93A08949
:1004F000B1898C9182748C93938D848D981306C0EE
:100500000288F389E02D80818F7D80830895EF92AA
:10051000FF920F931F93CF93DF93EC0181E0888FBD
:100520009B8D8C8D981319C0E889F989808185FF8E
:1005300014C09FB7F894EE89FF896083E889F98930
:100540008081827480839FBF81E090E0DF91CF91B2
:100550001F910F91FF90EF900895F62E0B8D10E0F4
:100560000F5F1F4F0F731127E02E8C8D8E110CC063
:100570000FB607FCFACFE889F989808185FFF5CFAE
:10058000CE010E946602F1CFEB8DEC0FFD2FF11D25
:10059000E35AFF4FF0829FB7F8940B8FEA89FB89EB
:1005A00080818062CFCFCF93DF93EC01888D882349
:1005B000B9F0AA89BB89E889F9898C9185FD03C0C6
:1005C000808186FD0DC00FB607FCF7CF8C9185FFAB
:1005D000F2CF808185FFEDCFCE010E946602E9CF88
:1005E000DF91CF910895CF93DF931F92CDB7DEB700
:1005F0006983DC01ED91FC910280F381E02D41E003
:1006000050E0BE016F5F7F4F09950F90DF91CF9152
:10061000089583E08093E9008091F200882319F027
:100620008AE38093E80008950E94310190E00895E4
:10063000CF93DF931F92CDB7DEB7FC0184859585FC
:1006400097FD08C02FEF3FEF358724870F90DF918C
:10065000CF910895CE0101960E940701019719F4E8
:10066000898190E0F3CF8FEF9FEFF0CF0F931F932F
:10067000CF93DF931F92CDB7DEB78C01FC01848549
:10068000958597FF0BC0CE0101960E940701019747
:1006900071F4898190E0F80195878487F801848559
:1006A00095850F90DF91CF911F910F9108958FEF56
:1006B0009FEFF1CFFC018485958597FD0BC09FB717
:1006C000F89482E08093E9008091F2009FBF90E06F
:1006D000019608959FB7F89482E08093E900809195
:1006E000F2009FBF90E0089581508F3008F047C01E
:1006F000E82FF0E0E258FC4F0C94D4189B039F03C2
:100700008D0393039703BF03BF03BF03A203A80393
:10071000AC03B003B603BF03BA03809180008F77A8
:10072000809380000895809180008F7DF9CF809123
:100730008000877FF5CF84B58F7784BD089584B519
:100740008F7DFBCF809190008F77809390000895EC
:10075000809190008F7DF9CF80919000877FF5CFB9
:100760008091C0008F778093C00008958091C00071
:100770008F7DF9CF8091C200877F8093C20008955A
:10078000CF93DF93282F30E0F901E65BFE4F849191
:10079000F901EA56FE4FD491F901E958FE4FC49190
:1007A000CC23A1F081110E947403EC2FF0E0EE0F36
:1007B000FF1FE759FE4FA591B491EC91ED2381E025
:1007C00090E009F480E0DF91CF91089580E090E01F
:1007D000FACF1F93CF93DF93282F30E0F901E65B28
:1007E000FE4F8491F901EA56FE4FD491F901E95880
:1007F000FE4FC491CC23A9F0162F81110E947403DF
:10080000EC2FF0E0EE0FFF1FE55CFE4FA591B491D9
:100810008FB7F894EC91111108C0D095DE23DC93CA
:100820008FBFDF91CF911F910895DE2BF8CFCF932B
:10083000DF9390E0FC01EA56FE4F249189589E4FC9
:10084000FC0184918823C9F090E0880F991FFC0176
:10085000E854FF4FA591B491FC01E55CFE4FC591B2
:10086000D49161110DC09FB7F8948C91209582238B
:100870008C938881282328839FBFDF91CF9108958F
:10088000623051F49FB7F8943C91822F8095832376
:100890008C93E8812E2BEFCF8FB7F894EC912E2B11
:1008A0002C938FBFEACF823108F08251E82FF0E01D
:1008B000E455FF4FE49190917B008E2F880F880FB5
:1008C00080729F7D892B80937B00E770E064E093CA
:1008D0007C0080917A00806480937A0080917A0015
:1008E00086FDFCCF809178009091790008953FB704
:1008F000F89480914B0190914C01A0914D01B091E1
:100900004E0126B5A89B05C02F3F19F00196A11DE9
:10091000B11D3FBFBA2FA92F982F8827BC01CD0149
:10092000620F711D811D911D42E0660F771F881FA8
:10093000991F4A95D1F708958F929F92AF92BF92D7
:10094000CF92DF92EF92FF926B017C010E947704BD
:100950004B015C01C114D104E104F104B9F00E941F
:100960007704681979098A099B09683E73408105F3
:10097000910580F321E0C21AD108E108F10888EE60
:10098000880E83E0981EA11CB11CE4CFFF90EF906D
:10099000DF90CF90BF90AF909F908F9008958F92EF
:1009A0009F92AF92BF92CF92DF92EF92FF920F93FE
:1009B0001F93CF93DF936C017B018A0180910B0120
:1009C000882309F45CC080912002882309F457C071
:1009D0008091550180FF05C08091E0008260809386
:1009E000E000E801B12C8AEFA82E93E0892E2AE3DB
:1009F000922E209711F4BB20D9F10E943101811170
:100A00000AC0AA94AA20D9F161E070E080E090E0E9
:100A10000E949C04EECF8C171D0611F00CF08C2F59
:100A20009FB7F8948092E9002091E80025FD02C06C
:100A30009FBFDFCF282F30E0C21BD30BF7018150BF
:100A400020F041914093F100FACFE20EF31EBB205B
:100A500021F09092E800B12CEBCF8091E80085FD69
:100A6000E7CF9092E800BB24B394209709F3F3CF2B
:100A70005D9884E680935401101611063CF081E0E5
:100A800090E0F6019383828310E000E0C801DF91DB
:100A9000CF911F910F91FF90EF90DF90CF90BF907B
:100AA000AF909F908F900895DC01EC91EC3090F521
:100AB00011968C91119728E830E0281B310987FDA9
:100AC0003395220F331F220F331F6217730784F0F1
:100AD00012968C9128E532E0281B310987FD339569
:100AE000220F331F220F331F621773070CF49B0171
:100AF00022503109220F331F4FB7F8948E2F90E008
:100B0000FC01EE0FFF1FE80FF91FED58FE4F328377
:100B100021834FBF08951F93CF93DF93EC01162FCE
:100B200088818C3008F04EC061E0812F0E9417044C
:100B30008881282F30E0F901EE0FFF1FE20FF31F2D
:100B4000ED58FE4F1F736081607C612B60831982BA
:100B50001A822CE0622F0E94B418829FB0011124E7
:100B600030E020E0AB01420F531FFA01EE0FFF1FF0
:100B7000E40FF51FED58FE4F908196FD16C02F5FD4
:100B80003F4F2C30310571F781110FC0109280005A
:100B900082E0809381001092850010928400B19AC7
:100BA00080916F00826080936F00E8818E2F90E0CB
:100BB000FC01EE0FFF1FE80FF91FED58FE4F80817B
:100BC000806480838881DF91CF911F910895FF9287
:100BD0000F931F93CF93DF93EC01FF24F394F60E52
:100BE0002F812F1581F108851985215041F16F3F23
:100BF000E1F430E050E040E06FEF7FEF80E090E024
:100C00000E942D17B901F8014C815D81CF01801B35
:100C1000910B84179507B0F44081469FC001479F10
:100C2000900D112490833196EFCF8F2D90E0982F67
:100C300088270197622F70E00E94C018E4CF70E00F
:100C400060E0E1CFFF82DF91CF911F910F91FF9084
:100C500008950F931F93DC0112968D919C91139729
:100C600068177907C0F517968C911797882361F05C
:100C7000489FA0011124452F829F90011124232F0A
:100C8000809F80011124012F1D968C911D9718962D
:100C9000ED91FC9119971A969C911A9789131EC091
:100CA000CB01880F991F680F791F6E0F7F1F1A964F
:100CB000EC911A97E60FF72FF11D40831B96EC91EC
:100CC0001B97E60FF72FF11D20831C968C91680F60
:100CD000711DFB0100831F910F910895660F771F0F
:100CE000660F771F6E0F7F1FFB01E80FF11D10824B
:100CF000DECF1F93CF93DF93EC01162F89818823DA
:100D000031F08E8187FD03C060E00E9417041E83CE
:100D10008981882341F061E0812F0E94170460E0FF
:100D2000812F0E94E903812F90E0FC01E958FE4FDA
:100D3000E491F0E0EE0FFF1FE55CFE4F259134914A
:100D40003B8B2A8BFC01EA56FE4FE491EC8BDF9142
:100D5000CF911F910895CF92DF92EF92FF920F9360
:100D60001F93CF93DF93CDB7DEB729970FB6F894D3
:100D7000DEBF0FBECDBF8C01DC0118968D919C911A
:100D8000892B09F465C00E947704F801C684D784D2
:100D9000E088F1886C197D098E099F096C327140D9
:100DA0008105910580F3F894D80114968D919C915A
:100DB00015979A8389831896ED91FC917F01BFEF77
:100DC000EB1AFB0A80818987F80190810288F389F8
:100DD000E02DD80154968C91992309F448C0908154
:100DE000982B98879081809589238F838F818C831E
:100DF00088E08B8358856F8149853B812C8189816F
:100E00009A81D701508347FD252F3A952083262FBD
:100E100039F0441F00C000006083000000C0F2CF22
:100E200038E04D9160830000019761F7D801539637
:100E3000FC93EE93529749873B832C839A83898353
:100E400078940E947704F80166877787808B918B6E
:100E500029960FB6F894DEBF0FBECDBFDF91CF91BC
:100E60001F910F91FF90EF90DF90CF9008959081A8
:100E7000982B98879081809589238F838F818E838B
:100E800088E08D8358856F8149853D812E818981D8
:100E90009A81D701508347FD252F00C000C02083D1
:100EA00000C000C000C000C000C060830000262F4A
:100EB0003A9541F0441F000000C000C000C000C0CF
:100EC00000C0E8CF38E04D9100C0608300C00197BA
:100ED00009F7D8015396FC93EE93529749873D83C7
:100EE0002E83ACCFCF93DF93EC018E8187FD07C0BB
:100EF00061E00E94170460E08E810E94E90381E0B6
:100F00008983DF91CF91089590914301923031F11F
:100F100028F4992351F09130C1F008959430F1F103
:100F200030F1953009F448C008958A3A49F4809127
:100F300010028F5F8093100281E080934301089537
:100F4000109243011092100208958434C9F78091E1
:100F500010028F5F8093100282E0EFCF8C3181F717
:100F6000809110028F5F8093100283E0E6CF9AEAAF
:100F70009093DE0194E49093DF019CE19093E00173
:100F800090911002E92F092E000CFF0BEE54FE4F3A
:100F900084A79F5F9093100284E0CFCF90911002BE
:100FA000E92F092E000CFF0BEE54FE4F84A79F5F24
:100FB0009093100285E0C1CF20911002E22F022E03
:100FC000000CFF0BEE54FE4F84A72F5F20931002FE
:100FD000422F022E000C550B8091E201082E000CCE
:100FE000990B05964817590709F06CC03091B2016A
:100FF00040919B015091B30190E080E092170CF07A
:1010000057C0823079F134F48823A9F08130F9F0A7
:101010009F5FF4CF8430D1F184F18530C9F710920D
:10102000BC01A4EBB1E080E0E82FE90F831337C0E7
:101030009E2F41E00AC0E92F092E000CFF0BEE5451
:10104000FE4F81E064A56A3A19F380E0E1CFE92F11
:10105000092E000CFF0BEE54FE4F64A56434C1F65C
:1010600082E0D6CFE92F092E000CFF0BEE54FE4F85
:1010700064A56C3169F683E0CBCFE92F092E000C13
:10108000FF0BEE54FE4F54A584E0C2CFE92F092E8A
:10109000000CFF0BEE54FE4F34A585E0B9CF0E2EA9
:1010A000000CFF0BEE54FE4F44A54D938F5FBCCF59
:1010B0003093B2015093B30140939B011092100200
:1010C000109243010895EF92FF920F931F93CF93D5
:1010D000DF93EC011CEF141BE62EF12C00E020E066
:1010E000412FB7010E942906CE010E94AB0620E0E5
:1010F000412FB701CE010E942906CE01DF91CF9189
:101100001F910F91FF90EF900C94AB060F931F93DC
:10111000EBE9F1E06491ECE7F1E0E491F0E0EE0F4F
:10112000FF1FE759FE4F8591949100E412E42FE0F0
:1011300030E0462F0E946A0E611571058105910508
:1011400029F06F5F7F4F8F4F9F4F9F701F910F91BF
:101150000895EF92FF920F931F93CF93DF93EC01CB
:101160007B0188859985009711F00E949C199D85C7
:101170008A85981701F184E090E08E9D80018F9D13
:10118000100D9E9D100D11241D830C83C8010E941B
:10119000001999878887009789F0A80170E060E0BE
:1011A0000E94251AFB82EA82DF91CF911F910F9155
:1011B000FF90EF90089583E090E0DFCF1D821C82C6
:1011C0001B821A82F1CF0F931F93CF93DF93EC0111
:1011D000162F042F19821F82198618861E861F86D5
:1011E000188A198A1D861A8681E08B8792E09C876F
:1011F000888370E0CE010E94A908602FCE010E9472
:1012000079061D8BCE010E9472076FEFCE010E94FE
:10121000E705CE01DF91CF911F910F910C94AB06A2
:10122000CF93DF93EC0188859985009711F00E9498
:101230009C198E8187FD05C060E0DF91CF910C94F1
:101240001704DF91CF9108950F931F93CF938C01D3
:10125000C0E0F8018589C81738F440E06C2FC80158
:101260000E946308CF5FF5CFC801CF911F910F9106
:101270000C9410090F93CF93DF9310921002E0911A
:1012800014038E2F90E0FC01EE0FFF1FE80FF91FF3
:10129000ED58FE4F808186FF05C08F7B808380E103
:1012A00080938100E09111038E2F90E0FC01EE0FFE
:1012B000FF1FE80FF91FED58FE4F808186FF05C024
:1012C0008F7B808380E180938100E0910E038E2FDD
:1012D00090E0FC01EE0FFF1FE80FF91FED58FE4FE5
:1012E000808186FF05C08F7B808380E180938100B1
:1012F000C0915B01D0915C01209751F0CE010E941A
:101300002409CE010E949C1910925C0110925B018D
:10131000C0915901D0915A01209751F0CE010E94FD
:101320002409CE010E949C1910925A011092590171
:10133000C0915701D0915801209751F0CE010E94E1
:101340002409CE010E949C19109258011092570155
:1013500061E086E00E94170460E086E00E94E903F5
:1013600061E089E00E94170460E089E00E94E903DF
:1013700061E08AE00E94170460E08AE00E94E903CD
:1013800060E084E00E94170460E084E00E94E903CA
:1013900060E088E00E94170460E088E00E94E903B2
:1013A00060E08CE00E94170460E08CE00E94E9039A
:1013B00087E193E00E94720762E387E193E00E9475
:1013C000E70587E193E00E94AB0600E020E040E003
:1013D00070E060E087E193E00E94290620E040E0B1
:1013E00061E070E087E193E00E94290620E040E0A0
:1013F00062E070E087E193E00E94290687E193E0D4
:101400000E94AB0681E0809311029EE0909312024D
:1014100080939D018093C801DF91CF910F91089532
:101420001F920F920FB60F9211248F939F9380916A
:10143000E1009091E100937F9093E10083FF0FC062
:101440001092E90091E09093EB001092EC0092E38F
:101450009093ED001092200298E09093F00082FFAC
:1014600022C093E09093E9009091F200992319F043
:101470009AE39093E80090915401992341F0909160
:101480005401915090935401911101C05D9A909133
:101490001F02992341F090911F02915090931F02D7
:1014A000911101C0289A84FF18C08091E2008E7EBD
:1014B00081608093E2008091E1008F7E8093E10063
:1014C000809155018E7E8061809355019F918F910F
:1014D0000F900FBE0F901F90189580FFF7CF80914F
:1014E000E2008E7E80618093E2008091E1008E7E3A
:1014F0008093E100809155018E7E8160E5CF1F923F
:101500000F920FB60F921124CF92DF92EF92FF92BB
:101510000F931F932F933F934F935F936F937F93FB
:101520008F939F93AF93BF93EF93FF93CF93DF93EB
:10153000CDB7DEB76C97DEBFCDBF1092E9008091CA
:10154000E80083FF25C068E0CE0145960E94DB01DC
:1015500082EF8093E8008D8987FF39C09091E80081
:1015600090FFFCCF982F907609F034C19E894F8967
:10157000588D2F89F88C911131C0803861F5809198
:1015800056018093F1001092F1008EEF8093E800F5
:101590006C960FB6F894DEBF0FBECDBFDF91CF9132
:1015A000FF91EF91BF91AF919F918F917F916F913B
:1015B0005F914F913F912F911F910F91FF90EF906D
:1015C000DF90CF900F900FBE0F901F9018959EEF59
:1015D0009093E800C7CF1092F100D5CF913059F425
:1015E0008111D3CF4130510581F6809156018D7F15
:1015F00080935601CACF933049F48111C6CF413050
:10160000510519F6809156018260F2CF953041F470
:101610008091E80080FFFCCF20682093E300B5CFE5
:10162000963009F0A9C00B8D1C8D22E01092E900C4
:101630001092520110925101F2122EC010925001DC
:1016400010924F010E94AA011F8299E09983FA82A9
:1016500091E09E8390EA98879AEF998720915101B3
:1016600030915201275F3F4F3C832B838D83109233
:10167000E900109252011092510110935001009311
:101680004F0149E050E0BE016F5F7F4F80E00E9454
:1016900084010E94AA0179CF1093500100934F0159
:1016A0000E944201DC0112960D911C910115110559
:1016B00009F451C1D801ED91FC910480F581E02D30
:1016C000BE016B5E7F4FC8010995009709F03EC1CE
:1016D000F80100851185EACFF3E0FF120EC08F8973
:1016E000882309F440C0823061F440E860E18AE276
:1016F00091E00E94AF0E811148CF81E28093EB0010
:1017000047CF813029F440E86BE08EE191E0F1CFE2
:10171000833099F70E944201DC011296ED90FC9013
:101720008E010F5F1F4F6801E114F10479F0D701BA
:10173000ED91FC910680F781E02DB801C701099574
:10174000080F111DF701E084F184EECFD8011C923F
:10175000F60101900020E9F73197BF016C197D096E
:1017600040E0C601C6CF68E071E0FB01449150E063
:1017700080E80E94840109CF973009F4BECF9830E9
:1017800021F481E08093F10000CF993009F0FDCE83
:10179000837009F0B2CFE4E1F1E081E031E096E35B
:1017A0002191222371F08093E9003093EB00DF0157
:1017B00011972C912093EC009093ED008F5F873070
:1017C00079F78EE78093EA001092EA008F89809380
:1017D0002002DBCE8B8D9C8D1092E900109252017D
:1017E000109251019093500180934F01898D811186
:1017F00092C08E899D89913A49F4813209F07DCF5A
:1018000047E050E064E071E080E0B3CF913209F04E
:1018100074CF833269F48F89988DB0E0A0E0809313
:10182000000190930101A0930201B0930301ADCE9A
:10183000803269F48091E80082FFFCCF67E084E0A9
:1018400091E00E94DB018BEF8093E8009ECE823214
:1018500009F09BCE8F8980930B01EEEFFFE7859116
:1018600094918B3F9C4D51F1E0E0F8E080910401B0
:1018700090910501A0910601B0910701803B944031
:10188000A105B105F1F480910B0180FD1AC0EE3F76
:101890008AE0F80789F587E797E79183808380914D
:1018A00060008093530188E19BE00FB6F894A895FF
:1018B000809360000FBE9093600067CEEEEFFAE079
:1018C000D5CF808191818737974709F05ECEA89563
:1018D00080916000886180936000809153018093C3
:1018E0006000EE3F2AE0F20789F08091FE0A9091B5
:1018F000FF0A9183808349CE808191818737980741
:1019000051F29093FF0A8093FE0AC5CF1092FF0A0E
:101910001092FE0A3ACE0E944201DC0112960D910D
:101920001C910115110509F4E8CED801ED91FC9147
:101930000190F081E02DBE016B5E7F4FC8010995DB
:10194000811123CEF80100851185EBCF18161906F9
:101950000CF41BCED2CEF1E0FF12BECE6CE071E0F3
:1019600004CF1F920F920FB60F9211248F939F9363
:10197000AF93BF93EF93FF938091670190916801BC
:10198000A0916901B0916A01892B8A2B8B2BA1F15F
:1019900090915E01E0915F01F09160018081892763
:1019A00080838091670190916801A0916901B09155
:1019B0006A01181619061A061B069CF48091670125
:1019C00090916801A0916901B0916A010197A10904
:1019D000B1098093670190936801A0936901B09366
:1019E0006A01FF91EF91BF91AF919F918F910F90FD
:1019F0000FBE0F901F901895809171008D7F80937E
:101A0000710080915E01E0915F01F0916001908131
:101A1000809589238083E5CF1F920F920FB60F9296
:101A200011242F933F934F935F936F937F938F93E3
:101A30009F93AF93BF93EF93FF9381E292E00E9455
:101A40006602FF91EF91BF91AF919F918F917F912E
:101A50006F915F914F913F912F910F900FBE0F901B
:101A60001F9018951F920F920FB60F9211242F936B
:101A70008F939F93EF93FF93E0913102F0913202A5
:101A80008081E0913702F091380282FD1BC0908185
:101A900080913A028F5F8F7320913B02821741F051
:101AA000E0913A02F0E0EF5DFD4F958F80933A02AE
:101AB000FF91EF919F918F912F910F900FBE0F90FB
:101AC0001F9018958081F4CF1F920F920FB60F923E
:101AD00011242F933F938F939F93AF93BF93809144
:101AE000470190914801A0914901B0914A0130917C
:101AF000460123E0230F2D3758F50196A11DB11D96
:101B0000209346018093470190934801A093490197
:101B1000B0934A0180914B0190914C01A0914D01ED
:101B2000B0914E010196A11DB11D80934B01909380
:101B30004C01A0934D01B0934E01BF91AF919F9185
:101B40008F913F912F910F900FBE0F901F9018957E
:101B500026E8230F0296A11DB11DD2CF1F920F922E
:101B60000FB60F9211242F933F934F935F936F9370
:101B70007F938F939F93AF93BF93CF93DF93EF9315
:101B8000FF9380914401C0914501D0E087FF24C0BC
:101B90001092850010928400809144018F5F8093A1
:101BA000440180914401082E000C990B8C179D076D
:101BB00024F4809144018C30C4F180918400909190
:101BC0008500049680349C4908F47AC08091840092
:101BD00090918500049676C080914401082E000CF7
:101BE000990B8C179D07C4F6E09144018E2FEE0FE0
:101BF000990BFC01EE0FFF1FE80FF91FED58FE4F88
:101C0000808186FFC9CFE09144018E2FEE0F990BA2
:101C1000FC01EE0FFF1FE80FF91FED58FE4F80810A
:101C200060E08F730E94E903B7CF20918400309168
:101C30008500E09144018E2FEE0F990BFC01EE0F11
:101C4000FF1FE80FF91FED58FE4F81819281820F2F
:101C5000931F9093890080938800E09144018E2F18
:101C6000EE0F990BFC01EE0FFF1FE80FF91FED5867
:101C7000FE4F808186FF11C0E09144018E2FEE0F50
:101C8000990BFC01EE0FFF1FE80FF91FED58FE4FF7
:101C9000808161E08F730E94E903FF91EF91DF91F2
:101CA000CF91BF91AF919F918F917F916F915F91F4
:101CB0004F913F912F910F900FBE0F901F9018954D
:101CC00080E49CE990938900809388008FEF809353
:101CD0004401E3CFCF92DF92EF92FF920F931F93D5
:101CE000E82FF92F05C0015011092109310961F1CF
:101CF000908196239417B9F305C001501109210969
:101D0000310911F1908196239413F7CFC12CD12C76
:101D1000E12CF12C0AC08FEFC81AD80AE80AF80A99
:101D20000C151D052E053F0579F08081862384174B
:101D300091F36C2D7D2D8E2D9F2D1F910F91FF9076
:101D4000EF90DF90CF90089560E070E080E090E049
:101D50001F910F91FF90EF90DF90CF900895EF9239
:101D6000FF920F931F93CF93DF93F82E192FE62E38
:101D7000042F81E0860F880F0E94560183E00E94A5
:101D80005601CF2DD12FEC0EFD2EF11CCE15DF0507
:101D9000B9F007FF13C0FE0184910E945601182F6D
:101DA00080E00E945601812321968111EFCFDF91BF
:101DB000CF911F910F91FF90EF9008958881EDCF03
:101DC00081E0F5CFFC01909145019C3098F481E0D1
:101DD000890F809345019083892F90E0FC01EE0FDD
:101DE000FF1FE80FF91FED58FE4F88EB9BE0928331
:101DF000818308958FEF80830895E1E2F2E01382FA
:101E0000128288EE93E0A0E0B0E084839583A683FD
:101E1000B7832EE131E0318320832DEC30E035872C
:101E200024872CEC30E03787268728EC30E0318B94
:101E3000208B29EC30E0338B228B2AEC30E0358B81
:101E4000248B2EEC30E0378B268B118E128E138E66
:101E5000148EEEEBF2E01382128284839583A683C4
:101E6000B78380E391E0918380838FEF9FEF958725
:101E70008487E7E1F3E011821782118610861686C7
:101E80001786108A118A81E085878287138692E0FF
:101E90009487808363E070E0CF010E94A90867E027
:101EA00087E193E00E94790684E193E00E94E20ECC
:101EB00081E193E00E94E20E8EE093E00C94E20E4A
:101EC000CF93DF93CDB7DEB72D970FB6F894DEBF73
:101ED0000FBECDBF789484B5826084BD84B5816027
:101EE00084BD85B5826085BD85B5816085BD8091E5
:101EF0006E00816080936E0010928100809181005D
:101F00008260809381008091810081608093810054
:101F10008091800081608093800080919100826038
:101F200080939100809191008160809391008091D5
:101F300090008160809390008091C10084608093C4
:101F4000C1008091C10082608093C1008091C10076
:101F500081608093C1008091C30081608093C30041
:101F60008091C00082608093C0008091C200816037
:101F70008093C20080917A00846080937A0080917F
:101F80007A00826080937A0080917A0081608093E9
:101F90007A0080917A00806880937A001092200203
:101FA00010925601109255018091D7008160809364
:101FB000D70080EA8093D80089B5806189BD89B552
:101FC000826089BD09B400FEFDCF61E070E080E071
:101FD00090E00E949C048091D8008F7C8061809367
:101FE000D8008091E000807F8093E0008091E10044
:101FF0008E7E8093E1008DE08093E200559A209AD6
:10200000E0913102F091320282E08083E0912D0272
:10201000F0912E021082E0912F02F09130028FECAD
:10202000808310923902E0913502F091360286E009
:102030008083E0913302F09134028081806180835B
:10204000E0913302F0913402808188608083E091D6
:102050003302F0913402808180688083E091330202
:10206000F091340280818F7D80838FEF9FEF90937A
:10207000CB028093CA020E943A0981E292E00E9458
:102080004602181619060CF04DC080919C01811172
:1020900049C081E08093B10181E292E00E94240274
:1020A0000E9484078EEB92E00E945A0318161906CC
:1020B0000CF03BC08091B101811137C081E0809369
:1020C0009C018EEB92E00E9418030E94840780918D
:1020D0009B01882309F466C010929B01E091B30133
:1020E00010921B02E150E73108F05CC0F0E0E558C7
:1020F000FF4E0C94D4189810B0100F11CB11ED11A5
:10210000D210D210D210D210D2105A12BF122813ED
:102110006213D210D210D210D210D21065137113E4
:10212000DF1567161092B101BDCF10929C01CFCF81
:10213000E090B401E98261E08E2D0E94170461E015
:102140008091B501811101C060E089810E94E9039D
:1021500081E0809311028093120280939D013AC125
:10216000F090B401F98260E08F2D0E9417048981FC
:102170000E94C003AC01990F660B770B4093970147
:10218000509398016093990170939A0191E0909314
:10219000110292E090931202F0929D0180939E01B1
:1021A0009093C80180911102813009F0B8C5E09088
:1021B0001202E982E092C9018091B101882309F4F9
:1021C000BBC56AEA81E292E00E94870264E481E290
:1021D00092E00E9487026CE181E292E00E94870215
:1021E000698181E292E00E9487020091C801602F1C
:1021F00081E292E00E9487022DE931E03A8329834F
:1022000010E0011709F487C5A981BA816D91BA83DD
:10221000A98381E292E00E9487021F5FF2CF1091B2
:10222000B40161E0812F0E9417040091B501E02EF6
:10223000F12CFA82E98261E0812F0E941704EF28D5
:1022400029F460E0812F0E94E90328C029813A81A6
:102250002F3F310511F461E0F5CFE12FF0E0E65BAF
:10226000FE4FE491E150EF3008F08EC0F0E0E55C05
:10227000FE4E0C94D4184A1155115A116611721160
:10228000C411C411C4117E118A119611A211AF118B
:10229000C411B71184B5806884BD07BD81E0809307
:1022A000110293E09093120258CF84B5806284BDEE
:1022B00008BDF4CF80918000806880938000E98021
:1022C000FA80F0928900E0928800E8CF8091800047
:1022D00080628093800009811A8110938B000093A3
:1022E0008A00DCCF80918000886080938000E98044
:1022F000FA80F0928D00E0928C00D0CF8091900017
:1023000080688093900009811A811093990000934E
:102310009800C4CF80919000806280939000E98003
:10232000FA80F0929B00E0929A00B8CF80919000E2
:1023300088608093900009811A8110939D0000931A
:102340009C00ACCF8091C00080688093C0008091D9
:10235000C0008F7B8093C0000093CF009FCF8091FF
:10236000C00080628093C0000093D00097CF80911E
:10237000C20088608093C2008091C2008B7F8093EE
:10238000C2000093D2008ACF29813A8120383105DA
:102390000CF061CF56CFE090B401E9828E2D0E94FF
:1023A0005304AC01990F660B770B40939701509340
:1023B00098016093990170939A0191E090931102B2
:1023C00094E090931202E0929D0180939E015093BD
:1023D0009F0183E08093C801E5CEF090B401F982BB
:1023E00062E08F2D0E94170489810E94C003892B0F
:1023F00021F461E089810E94E90365E070E080E0FA
:1024000090E00E949C04098186E00430A1F01981CB
:1024100087E0163081F0098188E0083061F0198189
:1024200089E0193041F009818AE00A3021F01981F0
:102430001C3079F48BE00E945304092E000CAA0B87
:10244000BB0B8093970190939801A0939901B0934F
:102450009A018091970190919801A0919901B09172
:102460009A01893D9340A105B105DCF481E090E03B
:10247000A0E0B0E08093970190939801A093990118
:10248000B0939A0181E08093110285E0809312025B
:10249000E980E0929D018091970180939E0182E006
:1024A00099CF109297011092980110929901109271
:1024B0009A01E8CFF090B6010F2D10E0302F2227BF
:1024C0008091B501280F311D3A8329838091B40191
:1024D0008630F9F4E09114038E2F90E0FC01EE0FAA
:1024E000FF1FE80FF91FED58FE4F808186FD06C0E3
:1024F00066E070E084E193E00E948B0569817A8157
:1025000084E193E00E94540581E0809311029BE0F6
:10251000C9CE8930C9F4E09111038E2F90E0FC01FF
:10252000EE0FFF1FE80FF91FED58FE4F808186FD6B
:1025300006C069E070E081E193E00E948B0569814B
:102540007A8181E193E0DECF8A30F1F6E0910E03EB
:102550008E2F90E0FC01EE0FFF1FE80FF91FED58E2
:10256000FE4F808186FD06C06AE070E08EE093E059
:102570000E948B0569817A818EE093E0C3CF61E090
:102580008BE00E94170460E085E00E94170460E081
:102590008BE00E94E90383E090E00197F1F761E0AE
:1025A0008BE00E94E90303E210E0C8010197F1F714
:1025B00060E08BE00E94E9030E9486081B012C0169
:1025C00060E08BE00E94E90383E090E00197F1F77F
:1025D00061E08BE00E94E903C8010197F1F760E038
:1025E0008BE00E94E9030E9486087B018C0120E0B9
:1025F00030E0A9016E83FF82888719872A873B878D
:102600004C875D879B01AC0160E070E080E090E06A
:1026100051016201E12CF12C00E010E00E94F7185A
:1026200002E00E94DC180E9425182DEC3CEC48EEDC
:1026300051E40E947D170E94EF1781E08093110200
:102640008CE08093120260939D0170939E0127CFCE
:1026500087E193E00E94720762E387E193E00E94C2
:10266000E70587E193E00E94AB060091B601209157
:10267000B5014091B40170E060E087E193E00E9411
:1026800029060091B9012091B8014091B70161E09C
:1026900070E087E193E00E9429060091BC0120913F
:1026A000BB014091BA0162E070E087E193E00E94D3
:1026B000290687E193E00E94AB0681E08093110236
:1026C0009DE0F0CD0E943A096DCD81E0809311022A
:1026D00094E19093120280939D0182E080939E0189
:1026E00079CEF090B40161E08F2D0E941704209004
:1026F000B601312C322C22242091B501220E311C3E
:102700000091B80110E0102F00278091B701080F49
:10271000111D980150E040E029833A834B835C838C
:1027200080910C018F1193C0E9E4F1E0F491FD83F5
:10273000F7FD68C061E08F2D0E941704ED80EE2048
:1027400021F02D81223009F078C14101B12CA12C5A
:1027500060E072E18AE790E0A50191010E942D17E7
:1027600029013A017A01690131E0C31AD108E1086F
:10277000F1084FEFC416D104E104F10409F00CF4A0
:1027800051C160E472E48FE090E0A50191010E94E4
:102790002D1769017A0181E0C81AD108E108F10812
:1027A0009D81923009F0F5C0AFEFCA16D104E10463
:1027B000F104C1F0BCF060E970ED83E090E0A501A8
:1027C00091010E942D1769017A01B1E0CB1AD1085D
:1027D000E108F108EFEFCE16D104E104F10411F0A5
:1027E0000CF0DFC22FEF3FEFA9010115110509F031
:1027F0005CC10D81013009F4BBC10CF0A4C1002300
:1028000009F4A7C169817A818B819C810E949C0413
:102810008091B40190910C01891311C0E9E4F1E0B9
:1028200094912FEF20930C01913009F4B6C108F474
:10283000B1C1933009F4B7C1943009F4BAC160E072
:102840000E94E90381E08093110295E12BCD8F3F37
:10285000C9F6F0920C01E9E4F1E0F491FD83FF3F49
:1028600089F2F13061F170F0F33009F44AC0F430CC
:1028700009F46DC0ED80E7FCC5CF61E08F2D0E94AB
:1028800017045FCF14BC15BC84B5826084BD85B5C8
:10289000816085BD8F2D90E0FC01E958FE4FE491E9
:1028A000F0E0EE0FFF1FE55CFE4F25913491FC0137
:1028B000EA56FE4FE491E09362011D823BCF1092F5
:1028C0008000109281008091810088608093810057
:1028D000809181008160809381008F2D90E0FC01C8
:1028E000E958FE4FE491F0E0EE0FFF1FE55CFE4F6C
:1028F00025913491FC01EA56FE4FE491E093610189
:1029000019CF1092900010929100809191008860F0
:1029100080939100809191008160809391008F2D30
:1029200090E0FC01E958FE4FE491F0E0EE0FFF1F4C
:10293000E55CFE4F259134913093600120935F0157
:10294000FC01EA56FE4FE491E0935E01F3CE109253
:10295000C0001092C1008091C10088608093C100C6
:102960008091C10081608093C1008F2D90E0FC01B7
:10297000E958FE4FE491F0E0EE0FFF1FE55CFE4FDB
:1029800025913491FC01EA56FE4FE491E0935D01FC
:10299000D1CEFFEFCF16D104E104F10409F00CF41D
:1029A0004AC068E478EE81E090E0A50191010E94C0
:1029B0002D1769017A0181E0C81AD108E108F108F0
:1029C0009D81992309F414C23FEFC316D104E10499
:1029D000F10409F008F406CF62E17AE780E090E0C4
:1029E000A50194010E942D1769017A01A1E0CA1A7C
:1029F000D108E108F108BFEFCB16D104E104F104DE
:102A000009F008F4EFCE730162018AE0F594E794CF
:102A1000D794C7948A95D1F731E0C31AD108E10859
:102A2000F108E0CE81E0BD81B111DCCE95B5987F93
:102A3000892B85BDD7CE82E0F6CFB12CA12C60E0EA
:102A400072E18AE790E0A50191010E942D176901CA
:102A50007A01E1E0CE1AD108E108F10891E0C11451
:102A6000D104F1E0EF06F10484F068E478EE81E04F
:102A700090E0A50191010E942D1769017A0181E082
:102A8000C81AD108E108F10893E0AD81A130D1F472
:102A900080918100887F892B809381002FEF3FEF09
:102AA000A9010115110509F463C09101220F331F1B
:102AB000D8010E946E1728EE33E040E050E00E94FB
:102AC0004C1797CEBD81B330F1F480919100887F8F
:102AD000892B809391002FEF3FEFA901011511057C
:102AE00021F7D0929900C09298002093670130930B
:102AF00068014093690150936A018091710082607E
:102B0000809371007FCEED81E43009F06BCE80912F
:102B1000C100887F892B8093C1002FEF3FEFA9016F
:102B20000115110511F6C092CF0020936301309377
:102B30006401409365015093660180917200806446
:102B4000809372005FCE1D81133059F2143059F317
:102B500059CEC7BC20936F0130937001409371012F
:102B60005093720180916E00826080936E004ACE15
:102B7000D0928900C092880020936B0130936C0141
:102B800040936D0150936E0180916F00826080933D
:102B90006F0038CE10926E0052CE90916F009D7FE4
:102BA00090936F004CCE909171009D7F9093710037
:102BB00046CE909172009F7B9093720040CE00E0D1
:102BC000F090B4010F1508F07DC0E02FF0E0EE5456
:102BD000FE4FE4801E2D111F1127111F2E2D2F7760
:102BE00029838091B501863029F580915B01909110
:102BF0005C01892B71F486E190E00E9400196C0160
:102C000046E050E06F2D0E94E308D0925C01C09234
:102C10005B014981453608F044E617951127179561
:102C2000412B602F80915B0190915C010E946308B1
:102C30000F5FC6CF893011F58091590190915A01EB
:102C4000892B71F486E190E00E9400196C0149E043
:102C500050E06F2D0E94E308D0925A01C0925901B2
:102C60004981453608F044E6179511271795412B01
:102C7000602F8091590190915A01D8CF8A30C1F6C6
:102C80008091570190915801892B71F486E190E071
:102C90000E9400196C014AE050E06F2D0E94E30889
:102CA000D0925801C09257014981453608F044E658
:102CB000179511271795412B602F809157019091FF
:102CC0005801B4CF81E08093110296E1EBCA809164
:102CD000B4018130D1F41092B10180939C0181E064
:102CE0008093110287E1809312029091B201909338
:102CF000C801A4EBB1E0EDE9F1E080E0981709F438
:102D000056CA2D9121938F5FF9CF10929C0181E0DB
:102D10008093B101E4CF1092B1011092110280E0D2
:102D200090E0892B09F4A9C90E945202882309F472
:102D3000A4C90E940000A1C980919C01882369F365
:102D40006AEA8EEB92E00E94F30264E48EEB92E07A
:102D50000E94F3026CE18EEB92E00E94F30260911C
:102D6000C9018EEB92E00E94F3026091C8018EEBE4
:102D700092E00E94F30219828091C801E980E8166E
:102D800068F4EE2DF0E0E356FE4F60818EEB92E0AA
:102D90000E94F30209810F5F0983EECF10929C011C
:102DA000BCCF68E478EE81E090E0A50191010E943B
:102DB0002D1769017A0181E0C81AD108E108F108EC
:102DC0009FEFC916D104E104F10409F00CF40ACD17
:102DD00064E274EF80E090E0A50194010E942D1759
:102DE00069017A01A1E0CA1AD108E108F108ECCD25
:102DF00083E02FEFC216D104E104F10409F00CF4D2
:102E000015CE62E17AE780E090E0A50194010E948E
:102E10002D1769017A01E1E0CE1AD108E108F10825
:102E200084E0FFEFCF16D104E104F10409F008F4C7
:102E3000FDCD730162019AE0F594E794D794C794AD
:102E40009A95D1F721E0C21AD108E108F10885E08E
:102E5000EDCD87E193E00C941009052E97FB1EF44D
:102E600000940E94441757FD07D00E944C1707FC9E
:102E700003D04EF40C94441750954095309521950D
:102E80003F4F4F4F5F4F0895909580957095619596
:102E90007F4F8F4F9F4F0895A1E21A2EAA1BBB1B95
:102EA000FD010DC0AA1FBB1FEE1FFF1FA217B30716
:102EB000E407F50720F0A21BB30BE40BF50B661F2C
:102EC000771F881F991F1A9469F7609570958095F0
:102ED00090959B01AC01BD01CF010895A29FB00167
:102EE000B39FC001A39F700D811D1124911DB29F3E
:102EF000700D811D1124911D08950E9491170C944D
:102F00007A180E94731858F00E946C1840F029F447
:102F10005F3F29F00C94631851110C94AE180C9477
:102F200069180E948B1868F39923B1F3552391F324
:102F3000951B550BBB27AA2762177307840738F028
:102F40009F5F5F4F220F331F441FAA1FA9F335D085
:102F50000E2E3AF0E0E832D091505040E695001C39
:102F6000CAF72BD0FE2F29D0660F771F881FBB1FF3
:102F7000261737074807AB07B0E809F0BB0B802DD1
:102F8000BF01FF2793585F4F3AF09E3F510578F0FD
:102F90000C9463180C94AE185F3FE4F3983ED4F39E
:102FA000869577956795B795F7959F5FC9F7880FD1
:102FB000911D9695879597F90895E1E0660F771F23
:102FC000881FBB1F621773078407BA0720F0621BB4
:102FD000730B840BBA0BEE1F88F7E09508950E94DF
:102FE000F6176894B1110C94AE1808950E949318C6
:102FF00088F09F5798F0B92F9927B751B0F0E1F0BA
:10300000660F771F881F991F1AF0BA95C9F714C069
:10301000B13091F00E94AD18B1E008950C94AD1854
:10302000672F782F8827B85F39F0B93FCCF38695A2
:1030300077956795B395D9F73EF4909580957095FF
:1030400061957F4F8F4F9F4F0895E894F92F96EB2E
:10305000FF2381F0121613061406440B9395F69580
:1030600087957795679557954040FF23B9F71BC023
:1030700099270895882351F49850D2F7872B762FFB
:10308000652F542F432F322F20E0B1F31216130671
:103090001406440B88233AF09A95440F551F661F77
:1030A000771F881FCAF755234AF4440F551F11F4A0
:1030B00060FF04C06F5F7F4F8F4F9F4F880F9695C3
:1030C000879597F9089597F99F6780E870E060E029
:1030D00008959FEF80EC089500240A9416161706B1
:1030E00018060906089500240A94121613061406F9
:1030F00005060895092E0394000C11F4882352F05C
:10310000BB0F40F4BF2B11F460FF04C06F5F7F4F13
:103110008F4F9F4F089557FD9058440F551F59F0FA
:103120005F3F71F04795880F97FB991F61F09F3FB4
:1031300079F087950895121613061406551FF2CFDD
:103140004695F1DF08C0161617061806991FF1CF2D
:1031500086957105610508940895E894BB27662754
:103160007727CB0197F90895991B79E004C0991F3F
:10317000961708F0961B881F7A95C9F780950895D1
:10318000AA1BBB1B51E107C0AA1FBB1FA617B7078D
:1031900010F0A61BB70B881F991F5A95A9F78095A9
:1031A0009095BC01CD010895EE0FFF1F0590F4919D
:1031B000E02D099497FD1094002E083098F00850E7
:1031C000232F342F452F562F672F782F892F912D9E
:1031D000F4CF15949795879577956795579547956B
:1031E000379527950A95AAF71124002D08952A0DE1
:1031F0003B1D4C1D5D1D6E1D7F1D801F911F089581
:103200000F931F93CF93DF938230910510F482E0E8
:1032100090E0E0912E03F0912F0330E020E0B0E049
:10322000A0E0309799F42115310509F44AC0281B14
:10323000390B24303105D8F58A819B8161157105E0
:1032400089F1FB0193838283FE0111C0408151818A
:103250000281138148175907E0F04817590799F47C
:10326000109761F012960C93129713961C93329656
:10327000CF01DF91CF911F910F91089500932E03FD
:1032800010932F03F4CF2115310551F04217530746
:1032900038F0A901DB019A01BD01DF01F801C1CFBE
:1032A000EF01F9CF90932F0380932E03CDCFFE0132
:1032B000E20FF31F819391932250310939832883C0
:1032C000D7CF20912C0330912D03232B41F4209153
:1032D0000F013091100130932D0320932C03209186
:1032E0000D0130910E012115310541F42DB73EB786
:1032F0004091110150911201241B350BE0912C03D8
:10330000F0912D03E217F307A0F42E1B3F0B2817B3
:10331000390778F0AC014E5F5F4F2417350748F04E
:103320004E0F5F1F50932D0340932C038193919375
:103330009FCFF0E0E0E09CCFCF93DF930097E9F0E0
:10334000FC01329713821282A0912E03B0912F03B9
:10335000ED0130E020E01097A1F420813181820F4F
:10336000931F20912C0330912D032817390709F062
:1033700061C0F0932D03E0932C03DF91CF9108956A
:10338000EA01CE17DF07E8F54A815B819E0141150E
:103390005105B1F7E901FB83EA8349915991C40FC3
:1033A000D51FEC17FD0761F4808191810296840F8F
:1033B000951FE90199838883828193819B838A8306
:1033C000F0E0E0E012968D919C9113970097B9F58B
:1033D0002D913C911197CD010296820F931F209160
:1033E0002C0330912D032817390739F6309751F502
:1033F00010922F0310922E03B0932D03A0932C0351
:10340000BCCFD383C28340815181840F951FC817DD
:10341000D90761F44E5F5F4F88819981480F591F2A
:10342000518340838A819B81938382832115310557
:1034300009F0B0CFF0932F03E0932E039ECFFD0150
:10344000DC01C0CF13821282D7CFDC0101C06D93A3
:1034500041505040E0F7089510E0CCEDD0E004C0BA
:10346000FE010E94D4182196CD3DD107C9F7F894EA
:02347000FFCF8C
:10347200FFFFFFFF00E1000000000000FF0000303E
:1034820003800000C180810000000000000087026C
:10349200E8011502D30246022402380200000000AD
:0E34A200F302CF04140309035A031803360380
:00000001FF
